:100000000C9432010C9461010C9461010C94610117
:100010000C9461010C9461010C9461010C946101D8
:100020000C9461010C9477080C9477080C94770871
:100030000C9461010C9467070C9461010C946101AC
:100040000C9461010C9461010C9461010C946101A8
:100050000C9461010C9461010C9461010C94FB0AF5
:100060000C9461010C94060F0C943C0F0C946101EC
:100070000C9461010C9461010C9461010C94610178
:100080000C9461010C9461010C9461010C94610168
:100090000C9461010C9461010C9461010C94610158
:1000A0000C9461010C9461010C9461010C94610148
:1000B0000C9461010C9461010C9461010C94610138
:1000C0000C9461010C9461010C9461010C94610128
:1000D0000C9461010C9461010C9461010C94610118
:1000E0000C946101D902E002EC02F402FA0202036C
:1000F00008030E03D5022F0C340C390C430C4D0CA5
:10010000C60C570C5F0C670C710C7B0C850C940CA7
:100110009E0CC60CA80CB20CBC0CE80CEB0CDA0C58
:10012000DE0CE40C220DEF0CF30CF90CFD0C010DB0
:10013000070D0B0D0F0D220D150D190D1D0D0000D6
:100140000A0B02090C0D0E08070304010000000051
:10015000000000000000000000000000000000009F
:10016000000000000000000000001211100000005C
:10017000000000000000000000000000000000007F
:10018000000000000102102020080810204010206C
:10019000408002010201080402010102040810204B
:1001A0004080804020100804020180040201804049
:1001B00020100804020108040201010204081020B2
:1001C0004080010204081020408005050505070550
:1001D00008080808020202020A0A080804040404C3
:1001E00001010101010101010303030303030303EF
:1001F000040707070C0C0C0C0C0C0C0C020202027E
:1002000006060606060606060B0B0B0B0B0B0B0B66
:10021000000020002300260029002C002F003200BF
:100220000001000003010601090100002200250071
:1002300028002B002E0031003400020100000501CF
:1002400008010B0100002100240027002A002D00D6
:100250003000330001010000040107010A01B3046A
:10026000700FE20411241FBECFEFD1E2DEBFCDBF7D
:1002700013E0A0E0B2E0EAE4F2E200E00BBF02C06B
:1002800007900D92A03AB107D9F725E0A0EAB3E0B4
:1002900001C01D92AF34B207E1F712E0C2E6D2E02E
:1002A00000E006C022970109FE010BBF0E940F115A
:1002B000CE35D10780E00807A9F70E94B40F0C944F
:1002C00013110C94000040ED57E060E070E082E70D
:1002D00094E00E94620A20E835E240E050E062EBE0
:1002E00074E082E794E00E94750A82E794E00E943D
:1002F0005F0A62E072E08091A3049091A4040E94DE
:1003000001106AE070E080E090E00E94740B41E030
:1003100060E082E794E00E94E00A8BE490E0909332
:1003200001028093000268E873E180E090E00E949F
:10033000740B81E090E09093A1038093A00326E0EA
:1003400040E855E260E070E082EB94E00E94A40E89
:1003500040E855E260E070E08DE094E00C947E09A6
:100360000F931F93CF93DF9387ED93E00E9459077C
:100370007093AE036093AD0365E070E080E090E0C1
:100380000E94740B8BEF93E00E9459077093B203A5
:100390006093B10365E070E080E090E00E94740B30
:1003A00089EE93E00E9459077093B0036093AF0306
:1003B00065E070E080E090E00E94740B85EC93E0D3
:1003C0000E9459077093AC036093AB0365E070E043
:1003D00080E090E00E94740B83EB93E00E94590749
:1003E0007093AA036093A90365E070E080E090E059
:1003F0000E94740BC2E0D0E087ED93E00E945907A1
:100400000091AD031091AE03222717FD2095322FE6
:10041000600F711F821F931F7093AE036093AD0333
:1004200065E070E080E090E00E94740B8BEF93E059
:100430000E9459070091B1031091B203222717FDC2
:100440002095322F600F711F821F931F7093B2038C
:100450006093B10365E070E080E090E00E94740B6F
:1004600089EE93E00E9459070091AF031091B00309
:10047000222717FD2095322F600F711F821F931FB7
:100480007093B0036093AF0365E070E080E090E0AC
:100490000E94740B85EC93E00E9459070091AB0316
:1004A0001091AC03222717FD2095322F600F711F8A
:1004B000821F931F7093AC036093AB0365E070E001
:1004C00080E090E00E94740B83EB93E00E94590758
:1004D0000091A9031091AA03222717FD2095322F1E
:1004E000600F711F821F931F2091AD033091AE03E7
:1004F00037FF02C02F5F3F4F359527953093AE03EE
:100500002093AD032091B1033091B20337FF02C0B5
:100510002F5F3F4F359527953093B2032093B1035A
:100520002091AF033091B00337FF02C02F5F3F4FE0
:10053000359527953093B0032093AF032091AB03FB
:100540003091AC0337FF02C02F5F3F4F35952795A1
:100550003093AC032093AB039B0177FF02C02F5F66
:100560003F4F359527953093AA032093A90365E063
:1005700070E080E090E00E94740B219709F03CCF7E
:10058000DF91CF911F910F9108958091A203992738
:1005900087FD9095A92FB92FFC01F097E930F1055F
:1005A000E8F5EE58FF4F0C9409111092A103109238
:1005B000A00380E092E00E942C0564EF72E008C086
:1005C00068EC70E080E092E00E943C0569EF72E028
:1005D00082EB94E00C940E1048EC50E068EC70E074
:1005E00080E092E00C94980568EC70E080E092E086
:1005F0000C94160648EC50E068EC70E080E092E065
:100600000C94D70568EC70E080E092E00C943E0614
:1006100068EC70E080E092E00C946A0508950E9416
:10062000B0012091AD033091AE038091B103909160
:10063000B203203131050CF421C1803191059CF0C9
:100640008091AF039091B003409774F18091AB0318
:100650009091AC03409744F18091A9039091AA0333
:10066000409714F179C18F309105DCF42091AF03EC
:100670003091B003203131050CF46CC04091AB03D4
:100680005091AC03403151050CF4A8C04091A9032E
:100690005091AA03403151050CF4A0C04FEF50E037
:1006A00039C00F9709F45EC18091AF039091B003F8
:1006B0008F3091059CF42091AB033091AC03203135
:1006C00031050CF45FC02091A9033091AA032031B9
:1006D00031050CF457C04FEF50E036C08031910522
:1006E0000CF450C02091AB033091AC032F30310596
:1006F000BCF44091A9035091AA034031510584F004
:100700008FE090E0821B930B2FEF289FA001299F81
:10071000500D11246FEF70E080E092E00C94D7054B
:10072000203131057CF12091A9033091AA032F30AB
:10073000310544F58FE090E0821B930B2FEF289F4B
:10074000A001299F500D11246FEF70E080E092E02E
:100750000C9498052F3031050CF040C04091AB034C
:100760005091AC0340315105CCF14091A903509117
:10077000AA034031510594F12817390744F544E69E
:1007800050E0E2CF80319105DCF12091AB03309154
:10079000AC032F303105A4F52091A9033091AA03B1
:1007A0002F3031056CF568EC70E080E092E00E943B
:1007B0003C052091AB033091AC038091A90390914B
:1007C000AA032530310534F482179307C4F244E6B6
:1007D00050E0A0CF85309105BCF3C4C02031310575
:1007E0000CF14091AB035091AC034F305105D4F460
:1007F0004091A9035091AA034F3051059CF4E7CFD3
:100800000F970CF0AFC08091AB039091AC030F97A2
:100810000CF0A8C08091A9039091AA030F970CF047
:10082000A1C0ADCF05970CF09DC0253031050CF06F
:1008300099C08091AB039091AC0305970CF092C0E6
:100840008091A9039091AA0305970CF08BC06FEFDC
:1008500070E080E092E00E946A0564EF71E080E061
:1008600090E00E94740B6FEF70E080E092E00E94D5
:100870003E066EEE72E080E090E054C02091AF033F
:100880003091B00380319105B4F020313105B4F0DE
:100890004091AB035091AC03403151057CF0409145
:1008A000A9035091AA034031510544F02817390794
:1008B0000CF411CFF3CE8F30910539F44091AB0396
:1008C0005091AC034A3051058CF42031310574F05D
:1008D0004091A9035091AA03463051053CF06FEFB7
:1008E00070E080E092E00E943E0618C02F30310593
:1008F0003CF02091A9033091AA032A303105A4F4D9
:10090000409794F08091AB039091AC03069764F00C
:100910006FEF70E080E092E00E94160664E670E0FF
:1009200080E090E00C94740B6FEF70E080E092E058
:100930000E946A0568EC70E080E090E00E94740B11
:100940006FEF70E080E092E00E943E066EEE72E093
:1009500080E090E00E94740B6FEF70E080E092E026
:100960000C943C05089520E04BE06AE08DE094E0B3
:100970000E944E0924E130E048E269E28BEF93E007
:100980000E94660624E130E04CE26DE289EE93E0DD
:100990000E94660624E130E04AE26BE287ED93E0D4
:1009A0000E94660624E130E04EE26FE285EC93E0BF
:1009B0000E94660624E130E040E361E383EB93E0CC
:1009C0000C9466068DE094E00C94F5088DE094E0BC
:1009D0000E9420081816190664F48DE094E00E9425
:1009E00092078093A203682F82EB94E00E9420106C
:1009F00011C089E38093A20389E19CEF9093A8033F
:100A00008093A7039093A6038093A5039093A403D8
:100A10008093A3038091A0039091A103813091055D
:100A200011F40C94C502892BB1F48091A203883390
:100A300081F481E090E09093A1038093A00380E093
:100A400092E00E942C0561E073E08DE094E00E944A
:100A50000E100C940F03089560E085E00E945C0D79
:100A600060E084E00E945C0D60E087E00E945C0D25
:100A700060E086E00C945C0D0F931F93CF93DF939F
:100A80008C01EB0160E084E00E945C0D60E086E098
:100A90000E945C0DCF3FD10509F044F4F80180813C
:100AA0009181C817D90724F4EC0102C0CFEFD0E040
:100AB00065E070E080E090E00E94740BBE0185E08C
:100AC0000E94090CBE0187E0DF91CF911F910F9129
:100AD0000C94090C0F931F93CF93DF938C01EB01C0
:100AE00060E085E00E945C0D60E087E00E945C0DA4
:100AF000CF3FD10509F044F4F80180819181C817F6
:100B0000D90724F4EC0102C0CFEFD0E065E070E03B
:100B100080E090E00E94740BBE0184E00E94090C0A
:100B2000BE0186E0DF91CF911F910F910C94090CCB
:100B3000EF92FF920F931F93CF93DF937C01EB0112
:100B40008A0160E084E00E945C0D60E086E00E9423
:100B50005C0DCF3FD10509F044F4F701808191810C
:100B6000C817D90724F4EC0102C0CFEFD0E0C017BA
:100B7000D10734F00233110524F402E310E001C080
:100B80008E0165E070E080E090E00E94740BBE0191
:100B9000601B710B85E00E94090CBE0187E0DF91AC
:100BA000CF911F910F91FF90EF900C94090CEF9251
:100BB000FF920F931F93CF93DF937C01EB018A0188
:100BC00060E084E00E945C0D60E086E00E945C0DC5
:100BD000CF3FD10509F044F4F70180819181C81716
:100BE000D90724F4EC0102C0CFEFD0E0C017D10741
:100BF00034F00233110524F402E310E001C08E0149
:100C000065E070E080E090E00E94740BBE01601B24
:100C1000710B87E00E94090CBE0185E0DF91CF9146
:100C20001F910F91FF90EF900C94090C0F931F935D
:100C3000CF93DF938C01EB0160E085E00E945C0DB7
:100C400060E086E00E945C0DCF3FD10509F044F4DE
:100C5000F80180819181C817D90724F4EC0102C002
:100C6000CFEFD0E0BE0184E00E94090CBE0187E016
:100C7000DF91CF911F910F910C94090C0F931F934B
:100C8000CF93DF938C01EB0160E084E00E945C0D68
:100C900060E087E00E945C0DCF3FD10509F044F48D
:100CA000F80180819181C817D90724F4EC0102C0B2
:100CB000CFEFD0E0BE0185E00E94090CBE0186E0C6
:100CC000DF91CF911F910F910C94090CCF93DF937B
:100CD000DC0170E0FB01EC57FE4FE4911496EC93BD
:100CE0001497842F90E0FC01EC57FE4FE491159689
:100CF000EC93159766537E4FFB01C491D0E0CC0F67
:100D0000DD1FC65DDD4FFE014591549117965C9342
:100D10004E931697FC01E653FE4F849190E0880FA6
:100D2000991F805F9D4FFC014591549119965C93EA
:100D30004E931897FB016491E62FF0E0EE0FFF1F32
:100D4000EC5BFD4F859194911B969C938E931A9723
:100D50002F5F3F4F49E3429FC001439F900D1124F5
:100D60008E38FFE69F0710F08DE89FE61D969C9356
:100D70008E931C97DF91CF9108950F931F93CF937C
:100D8000DF93EC01EA85FB8580819C81892B808340
:100D9000EE81FF8190818C8180958923808384E01E
:100DA00090E00E949C0BEE81FF8180819C81892BC9
:100DB00080838AE090E00E949C0BEE81FF8190810D
:100DC0008C81809589238083EA85FB8590818C8145
:100DD000809589238083E885F98580819D81892399
:100DE00011F080E032C00E94510B4C855D858A0174
:100DF00020E030E00855194E2F4F3F4F060F171FC8
:100E0000281F391F0E871F87288B398BE885F985A6
:100E100080819D81892361F40E94510B0E851F857D
:100E200028893989061717072807390778F7D9CF8E
:100E30000E94510B2C853D85620F731F811D911DF2
:100E40006E877F87888B998B81E0DF91CF911F918F
:100E50000F9108950F931F93CF93DF93EC010E949E
:100E6000BD06882389F0E885F98580819D818923E5
:100E700071F00E94510B0E851F852889398906174C
:100E800017072807390778F727EE33E00CC00E94D0
:100E9000510B2C853D85255031094E855F85241BDE
:100EA000350B260F371FC901DF91CF911F910F918D
:100EB00008950E942A07BC0180E090E029E330E019
:100EC00040E050E00E94C810CA01B90108951F9285
:100ED0000F920FB60F9211240BB60F922F933F93E0
:100EE0004F935F936F937F938F939F93AF93BF9332
:100EF000EF93FF93E0912C04F0912D040995FF915D
:100F0000EF91BF91AF919F918F917F916F915F9181
:100F10004F913F912F910F900BBE0F900FBE0F90EE
:100F20001F9018952091700430917104281739078B
:100F3000B9F490912E0480912F04981789F0E091D4
:100F40002E04F0E0E05DFB4F808120912E0430E024
:100F50002F5F3F4F2F73332720932E0490E0089587
:100F60008FEF9FEF08951F93CF93DF93DC015C9683
:100F70008D919C915D97009749F481E090E01396E4
:100F80009C938E93129780E090E03BC05196ED9138
:100F9000FC91529750962C915097322F30951FB755
:100FA0005E964C915E9741FB772770F941FD609505
:100FB000F8944081772311F0422B01C043234083F2
:100FC000EC012197F1F748E0508160FF02C0522BFD
:100FD00001C053235083EC012197F1F766954150EE
:100FE00099F78081772311F0832301C0822B8083BE
:100FF0001FBF5C968D919C915D970197F1F781E001
:1010000090E0DF91CF911F91089508952091700491
:10101000309171042817390781F490912E04809142
:101020002F04981751F0E0912E04F0E0E05DFB4FA3
:101030008081992787FD909508958FEF9FEF089500
:1010400020917004309171042817390771F4809150
:101050002F0420912E0490E0805C9F4F821B910909
:1010600060E470E00E94B410089580E090E008957C
:10107000E0917004F0917104E817F90769F4A3890D
:10108000B4899C918589809589238C9310927104F1
:101090001092700481E0089580E00895CF93DF936B
:1010A000EC018A8D9B8D892BF1F0809170049091D9
:1010B00071048C179D07B9F0009711F00E94380851
:1010C0008E8D8E7F8E8F10922F0410922E04D093CF
:1010D0007104C0937004EB89FC8980819D89892B00
:1010E000808381E001C080E0DF91CF9108951F925D
:1010F0000F920FB60F9211240BB60F922F933F93BE
:101100004F935F936F937F938F939F93AF93BF930F
:10111000EF93FF93E0917004F0917104309709F41C
:1011200051C0868DA685B785958581FF04C08C91B9
:10113000892329F447C08C91892309F043C0A389EE
:10114000B4899C918589809589238C938689978918
:101150000197F1F7208D318DA685B785758558E00B
:1011600040E0C9010197F1F7842F90E095958795AC
:10117000482F6C91672309F04068515091F7868D94
:1011800081FD409580912F0490E001968F739927FF
:1011900020912E04281749F0A0912F04B0E0A05D03
:1011A000BB4F4C9380932F0403C0868D8160868F44
:1011B000828D938D0197F1F7A389B4898C919589DC
:1011C000892B8C93FF91EF91BF91AF919F918F915C
:1011D0007F916F915F914F913F912F910F900BBE37
:1011E0000F900FBE0F901F9018952DE133E0FC017A
:1011F000318320830C9438081F93CF93DF93EC0145
:10120000162F6E8D6695617081E06827812F0E9490
:101210005C0D61E0812F0E94230D812F90E0FC0185
:10122000EC57FE4FE491E88BFC01E653FE4FE4914E
:10123000F0E0EE0FFF1FE65DFD4F859194919A8BD4
:10124000898BDF91CF911F9108951F93CF93DF93E7
:10125000EC01162F60E0812F0E94230D8E8D81FD01
:1012600004C061E0812F0E945C0D1C87812F90E0FB
:10127000FC01EC57FE4FE491ED87FC01E653FE4F75
:10128000E491F0E0EE0FFF1FE05FFD4F8591949138
:101290009F878E87DF91CF911F910895FF920F93C3
:1012A0001F93CF93DF93EC01F62E522F1B821A82ED
:1012B00008EE13E020E030E00C831D832E833F8393
:1012C0008DE193E0998388831F8A1E8A198E188E78
:1012D0001B8E1A8E1D8E1C8E8E8D8E7F50FB81F97B
:1012E0008E8F642FCE010E94FC086F2DCE01DF91FE
:1012F000CF911F910F91FF900C9425090F931F938D
:10130000CF93DF93EC019A01AB011B8E1A8E198EDD
:10131000188E1F8A1E8A60E079E08DE390E00E94BB
:10132000EA10C9012430310520F0B9016350710978
:1013300002C061E070E07D8F6C8F1C8506EF010FAD
:10134000043048F06EEC610F643028F062EC610FFD
:10135000683008F07DC0B9017695679564317105F4
:1013600018F06351710902C061E070E07F8B6E8BF1
:10137000069718F0C901059702C081E090E0998FA7
:10138000888FC901880F991F820F931F96958795A3
:10139000969587958D30910510F00C9702C081E0ED
:1013A00090E09B8F8A8F043060F08EEC810F843048
:1013B00040F082EC810F883008F051C0A8E6B0E020
:1013C00050C0A8E6B0E0E8E6F0E09081043028F0F4
:1013D0001E53183010F484E001C081E0892B8C93F7
:1013E0002C8536EF320F343058F08EEC820F84307B
:1013F00038F082EC820F883030F48DE690E005C042
:101400008BE690E002C080E090E09C8B8B8B3430C8
:1014100010F426500BC0223379F0233379F02433B3
:1014200079F082EC820F883068F4282F81E001C0C7
:10143000880F2A95EAF707C088E005C084E003C05A
:1014400082E001C081E08D8B8C8D9D8D0197F1F73D
:10145000CE01DF91CF911F910F910C944E08A0E027
:10146000B0E0883008F4AFCFE0E0F0E0AECF0F930B
:101470001F93CF93DF93EC01662359F00E94450B35
:1014800069837A838B839C83DF91CF911F910F9126
:1014900008950E94450B09811A812B813C81601BB4
:1014A000710B820B930B693171058105910530F742
:1014B00063E070E080E090E00E94740BEACF60E0AF
:1014C0000C94370AFC0113AA14AA15AA16AA1182B1
:1014D000128213821482411551056105710521F0B4
:1014E000CB01BA010C94740B0895FB01BA01A90158
:1014F000DC01D296FC93EE93D19726E0CF010C94B9
:10150000A40E1F93CF93DF93EC01162F69E273E0D3
:1015100089A99AA90E9401104AE050E0612F89A987
:101520009AA90E94981060E373E089A99AA90E9481
:10153000011062E370E080E090E0DF91CF911F91B5
:101540000C94740B1F93CF93DF93EC01162F8D81B6
:10155000882389F189A99AA9DC01ED91FC91048085
:10156000F581E02D0995892BA9F307C026373105B0
:1015700019F12835310509F41D8289A99AA9DC01E0
:10158000ED91FC910480F581E02D0995181619065E
:1015900094F489A99AA9DC01ED91FC910680F78168
:1015A000E02D09959C01332723363105F9F6612F8B
:1015B000CE010E94810A83E6DF91CF911F910895A9
:1015C0000F931F93CF93DF931F92CDB7DEB78C019C
:1015D000662349F081E0F801858360E0C801498312
:1015E0000E94A20A4981F80145830F90DF91CF91B3
:1015F0001F910F9108951F920F920FB60F92112411
:101600002F933F938F939F93AF93BF938091AA049F
:101610009091AB04A091AC04B091AD043091A904B9
:1016200023E0230F2D3720F40196A11DB11D05C025
:1016300026E8230F0296A11DB11D2093A9048093D3
:10164000AA049093AB04A093AC04B093AD04809132
:10165000AE049091AF04A091B004B091B104019692
:10166000A11DB11D8093AE049093AF04A093B0046C
:10167000B093B104BF91AF919F918F913F912F9102
:101680000F900FBE0F901F9018952FB7F894609190
:10169000AA047091AB048091AC049091AD042FBF6B
:1016A00008953FB7F8948091AE049091AF04A09153
:1016B000B004B091B10426B5A89B05C02F3F19F026
:1016C0000196A11DB11D3FBF6627782F892F9A2F44
:1016D000620F711D811D911D42E0660F771F881FEB
:1016E000991F4A95D1F70895CF92DF92EF92FF921A
:1016F000CF93DF936B017C010E94510BEB01C1146E
:10170000D104E104F10489F00E949F100E94510B62
:101710006C1B7D0B683E734090F381E0C81AD108C2
:10172000E108F108C851DC4FEACFDF91CF91FF907B
:10173000EF90DF90CF9008958230910538F0880FB8
:10174000991F880F991F05970197F1F708957894CD
:1017500084B5826084BD84B5816084BD85B58260B6
:1017600085BD85B5816085BDEEE6F0E08081816054
:101770008083E1E8F0E01082808182608083808154
:1017800081608083E0E8F0E0808181608083E1EB2C
:10179000F0E0808184608083E0EBF0E08081816014
:1017A0008083E1E9F0E080818260808380818160D4
:1017B0008083E0E9F0E0808181608083E1EAF0E00D
:1017C000808182608083808181608083E0EAF0E0B4
:1017D000808181608083E1E2F1E0808182608083AA
:1017E000808181608083E0E2F1E08081816080839C
:1017F000EAE7F0E08081846080838081826080837A
:101800008081816080838081806880831092C100A4
:1018100008951F93CF93DF93182FEB0161E00E948F
:10182000230D209711F460E004C0CF3FD10539F4B7
:1018300061E0812FDF91CF911F910C945C0DE12F1E
:10184000F0E0E25CFE4F449150E0FA013197E23162
:10185000F10508F09BC0E558FF4F0C94091184B5C1
:10186000806884BDC7BD97C084B5806284BDC8BD93
:1018700092C080918000806880938000D09389001E
:10188000C093880088C0809180008062809380002F
:10189000D0938B00C0938A007EC0809180008860C6
:1018A00080938000D0938D00C0938C0074C0809191
:1018B000B00080688093B000C093B3006CC080918A
:1018C000B00080628093B000C093B40064C0809187
:1018D0009000806880939000D0939900C093980006
:1018E0005AC080919000806280939000D0939B00BA
:1018F000C0939A0050C080919000886080939000BF
:10190000D0939D00C0939C0046C08091A000806849
:101910008093A0008091A0008F7B8093A000D09343
:10192000A900C093A80037C08091A0008062809376
:10193000A000D093AB00C093AA002DC08091A0005E
:1019400088608093A000D093AD00C093AC0023C00A
:1019500080912001806880932001D0932901C09359
:10196000280119C080912001806280932001D093CA
:101970002B01C0932A010FC08091200188608093C1
:101980002001D0932D01C0932C0105C0C038D10592
:101990000CF04ECF48CFDF91CF911F91089590E08A
:1019A000FC013197E231F10508F04CC0E357FF4FDD
:1019B0000C940911809180008F7703C08091800082
:1019C0008F7D80938000089580918000877FF9CF7C
:1019D00084B58F7702C084B58F7D84BD08958091D2
:1019E000B0008F7703C08091B0008F7D8093B000EE
:1019F0000895809190008F7707C0809190008F7D2F
:101A000003C080919000877F80939000089580911B
:101A1000A0008F7707C08091A0008F7D03C08091C8
:101A2000A000877F8093A0000895809120018F7788
:101A300007C0809120018F7D03C080912001877FA6
:101A4000809320010895CF93DF9390E0FC01EC5741
:101A5000FE4F2491FC01E653FE4F8491882349F107
:101A600090E0880F991FFC01EC5BFD4FA591B491AC
:101A7000865D9D4FFC01C591D4919FB7611108C04F
:101A8000F8948C91209582238C93888182230AC0BC
:101A9000623051F4F8948C91322F309583238C93DB
:101AA0008881822B888304C0F8948C91822B8C933C
:101AB0009FBFDF91CF9108950F931F93CF93DF9333
:101AC0001F92CDB7DEB7282F30E0F901E25CFE4F60
:101AD0008491F901EC57FE4F1491F901E653FE4F42
:101AE00004910023C9F0882321F069830E94CF0C60
:101AF0006981E02FF0E0EE0FFF1FE65DFD4FA5913D
:101B0000B4919FB7F8948C91611103C01095812313
:101B100001C0812B8C939FBF0F90DF91CF911F91BC
:101B20000F910895FC01818D228D90E0805C9F4F84
:101B3000821B91098F7399270895FC01918D828DE5
:101B4000981731F0828DE80FF11D858D90E0089592
:101B50008FEF9FEF0895FC01918D828D981761F0B2
:101B6000828DDF01A80FB11D5D968C91928D9F5FD4
:101B70009F73928F90E008958FEF9FEF089586E610
:101B80009FE0892B41F080E090E0892B21F00E94BA
:101B9000660F811125C080E090E0892B41F080E044
:101BA00090E0892B21F00E94000081111CC080E090
:101BB00090E0892B41F080E090E0892B21F00E9499
:101BC0000000811113C080E090E0892BA1F080E03B
:101BD00090E0892B81F00E94000081110AC00895D5
:101BE0000E940000D8CF0E940000E1CF0E940000B8
:101BF000EACF0C9400000895FC01848DDF01A80F4A
:101C0000B11DA35ABF4F2C91848D90E001968F7324
:101C10009927848FA689B7892C93A089B1898C9143
:101C200080648C93938D848D981306C00288F38909
:101C3000E02D80818F7D80830895CF93DF93EC0129
:101C4000888D8823C9F0EA89FB89808185FD05C0DC
:101C5000A889B9898C9186FD0FC00FB607FCF5CF16
:101C6000808185FFF2CFA889B9898C9185FFEDCF5E
:101C7000CE010E94FC0DE7CFDF91CF910895CF9266
:101C8000DF92FF920F931F93CF93DF931F92CDB7F5
:101C9000DEB76C0181E0D60158968C9358975B961D
:101CA0009C915B975C968C915C97981307C05096BB
:101CB000ED91FC915197808185FD2EC0F601038D39
:101CC00010E00F5F1F4F0F731127F02EF601848D68
:101CD000F81211C00FB607FCF9CFD6015096ED915E
:101CE000FC915197808185FFF1CFC60169830E94E5
:101CF000FC0D6981EBCF838DE80FF11DE35AFF4F97
:101D00006083D6015B960C935B975296ED91FC91A4
:101D10005397808180620CC0D6015696ED91FC915C
:101D2000579760835096ED91FC9151978081806424
:101D3000808381E090E00F90DF91CF911F910F9110
:101D4000FF90DF90CF900895BF92CF92DF92EF92F5
:101D5000FF92CF93DF93EC016A017B01B22EE889F9
:101D6000F98982E08083411581EE5807610571058C
:101D7000A1F060E079E08DE390E0A70196010E9478
:101D8000C810215031094109510956954795379599
:101D90002795211580E1380798F0E889F9891082A4
:101DA00060E874E88EE190E0A70196010E94C810F7
:101DB0002150310941095109569547953795279585
:101DC000EC85FD853083EE85FF852083188EEC89B8
:101DD000FD89B082EA89FB89808180618083EA89FC
:101DE000FB89808188608083EA89FB8980818068A3
:101DF0008083EA89FB8980818F7D8083DF91CF9109
:101E0000FF90EF90DF90CF90BF9008951F920F92B8
:101E10000FB60F9211240BB60F922F938F939F93AF
:101E2000EF93FF93E091C204F091C3048081E091AD
:101E3000C804F091C90482FD12C090818091CB0446
:101E40008F5F8F732091CC04821751F0E091CB0407
:101E5000F0E0EE54FB4F958F8093CB0401C080815E
:101E6000FF91EF919F918F912F910F900BBE0F904B
:101E70000FBE0F901F9018951F920F920FB60F92E2
:101E800011240BB60F922F933F934F935F936F9351
:101E90007F938F939F93AF93BF93EF93FF9382EBC7
:101EA00094E00E94FC0DFF91EF91BF91AF919F9143
:101EB0008F917F916F915F914F913F912F910F90F3
:101EC0000BBE0F900FBE0F901F90189582EB94E001
:101ED0000E94920D21E0892B09F420E0822F0895C1
:101EE0001092B5041092B40488EE93E0A0E0B0E044
:101EF0008093B6049093B704A093B804B093B90448
:101F000085E893E09093B3048093B20485EC90E06D
:101F10009093BF048093BE0484EC90E09093C1043E
:101F20008093C00480EC90E09093C3048093C2043B
:101F300081EC90E09093C5048093C40482EC90E01F
:101F40009093C7048093C60486EC90E09093C904F4
:101F50008093C8041092CB041092CC041092CD044C
:101F60001092CE04089508950E94A70B0E94B30F0B
:101F70000E946301CFEBDDE00E94E6042097E1F3CD
:101F80000E94BF0DF9CFCF92DF92EF92FF920F9395
:101F90001F93CF93DF937C016A01EB0100E010E017
:101FA0000C151D0571F06991D701ED91FC9101901F
:101FB000F081E02DC7010995892B19F00F5F1F4FA4
:101FC000EFCFC801DF91CF911F910F91FF90EF905C
:101FD000DF90CF9008956115710581F0DB010D90C0
:101FE0000020E9F7AD0141505109461B570BDC01B8
:101FF000ED91FC910280F381E02D099480E090E066
:1020000008950C94EB0FDC01ED91FC910190F081AF
:10201000E02D099466E373E00C94EB0F0F931F938C
:10202000CF93DF93EC010E94EB0F8C01CE010E9455
:102030000A10800F911FDF91CF911F910F9108958A
:102040000F931F93CF93DF93EC010E9403108C0139
:10205000CE010E940A10800F911FDF91CF911F9136
:102060000F9108958F929F92AF92BF92CF92DF927D
:10207000EF92FF920F931F93CF93DF93CDB7DEB70D
:10208000A1970FB6F894DEBF0FBECDBF7C01C42E62
:10209000E52FCB01D22E19A221E02D1510F02AE058
:1020A000D22E8E010F5D1F4F8D2C912CA12CB12CA7
:1020B0006C2D7E2FA50194010E94C8108C2DD29EFC
:1020C00080191124015011098A3014F4805D01C077
:1020D000895CF8018083211531054105510521F006
:1020E000C22EE32FCA01E4CFB801C7010E94EB0F53
:1020F000A1960FB6F894DEBF0FBECDBFDF91CF9192
:102100001F910F91FF90EF90DF90CF90BF90AF9015
:102110009F908F9008952115310541F4DC01ED91D8
:10212000FC910190F081E02D642F09940C94321001
:102130009A01462F50E060E070E00C948B100895F7
:10214000AA1BBB1B51E107C0AA1FBB1FA617B707DD
:1021500010F0A61BB70B881F991F5A95A9F78095F9
:102160009095BC01CD01089597FB072E16F40094BD
:1021700007D077FD09D00E94A01007FC05D03EF4DF
:10218000909581959F4F0895709561957F4F089523
:10219000A1E21A2EAA1BBB1BFD010DC0AA1FBB1F6B
:1021A000EE1FFF1FA217B307E407F50720F0A21BDD
:1021B000B30BE40BF50B661F771F881F991F1A944A
:1021C00069F760957095809590959B01AC01BD0174
:1021D000CF010895052E97FB1EF400940E94011173
:1021E00057FD07D00E94C81007FC03D04EF40C9492
:1021F000011150954095309521953F4F4F4F5F4FBE
:10220000089590958095709561957F4F8F4F9F4F62
:102210000895EE0FFF1F0590F491E02D09940790AB
:10222000F691E02D099412E0C2E6D2E000E006C08B
:1022300022970109FE010BBF0E940F11C436D1077E
:0A22400080E00807A9F7F894FFCF2B
:10224A004B00564D4450565F317C315F564D4450D9
:10225A00560D0A004E657720436F6D6D616E6420DE
:10226A0052656365697665643A0053776974636891
:10227A00696E6720746F2041694D6F646500466F0F
:10228A007277617264732077697468207370656508
:10229A006420004261636B776172647320776974AA
:1022AA006820737065656420004C656674207769E0
:1022BA0074682073706565642000616E64207368B9
:1022CA006172706E65737320005269676874207753
:1022DA0069746820737065656420004C65667420B3
:1022EA00726F7461746520776974682073706565AC
:1022FA00642000526967687420726F746174652083
:10230A00776974682073706565642000556E6B6E1A
:10231A006F776E202D2D3E2053746F70006F626AA6
:10232A0065637420696E20776179202D2D3E2053D4
:10233A00544F500073746F7000566F6F72756974E2
:10234A0000537769746368696E6720746F204D6102
:10235A006E75616C4D6F64650000000000B307C3C1
:10236A000F2008920706080508564D4450435F009F
:10237A005F564D4450430D0A004572726F723A20FF
:10238A00417474656D707420746F20736574206174
:10239A0020726561642D6F6E6C7920766172696155
:1023AA00626C65206F722064617461207479706553
:1023BA00206E6F7420737570706F727465640D0A85
:1023CA0000000000003F0EC30F920DAB0D9D0D1DC6
:1023DA000E6E616E00696E66006F7666002E0000F2
:00000001FF
