:100000000C9432010C9461010C9461010C94610117
:100010000C9461010C9461010C9461010C946101D8
:100020000C9461010C94AE040C94AE040C94AE04D8
:100030000C9461010C9464020C9461010C946101B4
:100040000C9461010C9461010C9461010C946101A8
:100050000C9461010C9461010C9461010C947F0A71
:100060000C9461010C947E0E0C94B40E0C946101FE
:100070000C9461010C9461010C9461010C94610178
:100080000C9461010C9461010C9461010C94610168
:100090000C9461010C9461010C9461010C94610158
:1000A0000C9461010C9461010C9461010C94610148
:1000B0000C9461010C9461010C9461010C94610138
:1000C0000C9461010C9461010C9461010C94610128
:1000D0000C9461010C9461010C9461010C94610118
:1000E0000C946101BA07C107CD07D507DB07E30709
:1000F000E907EF07B607A70BAC0BB10BBB0BC50BA2
:100100003E0CCF0BD70BDF0BE90BF30BFD0B0C0CED
:10011000160C3E0C200C2A0C340C600C630C520C98
:10012000560C5C0C9A0C670C6B0C710C750C790CF2
:100130007F0C830C870C9A0C8D0C910C950C000095
:100140000A0B02090C0D0E08070304010000000051
:10015000000000000000000000000000000000009F
:10016000000000000000000000001211100000005C
:10017000000000000000000000000000000000007F
:10018000000000000102102020080810204010206C
:10019000408002010201080402010102040810204B
:1001A0004080804020100804020180040201804049
:1001B00020100804020108040201010204081020B2
:1001C0004080010204081020408005050505070550
:1001D00008080808020202020A0A080804040404C3
:1001E00001010101010101010303030303030303EF
:1001F000040707070C0C0C0C0C0C0C0C020202027E
:1002000006060606060606060B0B0B0B0B0B0B0B66
:10021000000020002300260029002C002F003200BF
:100220000001000003010601090100002200250071
:1002300028002B002E0031003400020100000501CF
:1002400008010B0100002100240027002A002D00D6
:100250003000330001010000040107010A01060A11
:10026000E80E350A11241FBECFEFD1E2DEBFCDBFAD
:1002700013E0A0E0B2E0E2EDF1E200E00BBF02C06B
:1002800007900D92A833B107D9F724E0A8E3B3E0B3
:1002900001C01D92A03BB207E1F712E0C2E6D2E036
:1002A00000E006C022970109FE010BBF0E94D31097
:1002B000CE35D10780E00807A9F70E942C0F0C94D7
:1002C000D7100C940000CF93DF93DC0170E0FB01AA
:1002D000EC57FE4FE4911496EC931497842F90E022
:1002E000FC01EC57FE4FE4911596EC93159766537D
:1002F0007E4FFB01C491D0E0CC0FDD1FC65DDD4F0A
:10030000FE014591549117965C934E931697FC010C
:10031000E653FE4F849190E0880F991F805F9D4FB8
:10032000FC014591549119965C934E931897FB01EB
:100330006491E62FF0E0EE0FFF1FEC5BFD4F85911F
:1003400094911B969C938E931A972F5F3F4F49E38E
:10035000429FC001439F900D11248E38FFE69F07F6
:1003600010F08DE89FE61D969C938E931C97DF916D
:10037000CF9108950F931F93CF93DF93EC01EA85FC
:10038000FB8580819C81892B8083EE81FF81908118
:100390008C8180958923808384E090E00E94140BF7
:1003A000EE81FF8180819C81892B80838AE090E0AF
:1003B0000E94140BEE81FF8190818C8180958923AE
:1003C0008083EA85FB8590818C8180958923808359
:1003D000E885F98580819D81892311F080E032C014
:1003E0000E94C90A4C855D858A0120E030E00855ED
:1003F000194E2F4F3F4F060F171F281F391F0E870B
:100400001F87288B398BE885F98580819D81892319
:1004100061F40E94C90A0E851F852889398906174B
:1004200017072807390778F7D9CF0E94C90A2C8502
:100430003D85620F731F811D911D6E877F87888B9D
:10044000998B81E0DF91CF911F910F9108950F93C8
:100450001F93CF93DF93EC010E94BA01882389F0A8
:10046000E885F98580819D81892371F00E94C90A00
:100470000E851F8528893989061717072807390728
:1004800078F727EE33E00CC00E94C90A2C853D8521
:10049000255031094E855F85241B350B260F371FEC
:1004A000C901DF91CF911F910F9108950E942702FA
:1004B000BC0180E090E029E330E040E050E00E94A1
:1004C0008C10CA01B90108951F920F920FB60F92B6
:1004D00011240BB60F922F933F934F935F936F931B
:1004E0007F938F939F93AF93BF93EF93FF93E0918D
:1004F0003803F09139030995FF91EF91BF91AF91C6
:100500009F918F917F916F915F914F913F912F912B
:100510000F900BBE0F900FBE0F901F90189560E0CC
:1005200085E00E94D40C60E084E00E94D40C60E07E
:1005300087E00E94D40C60E086E00C94D40C0F930A
:100540001F93CF93DF938C01EB0160E084E00E9466
:10055000D40C60E086E00E94D40CCF3FD10509F0B6
:1005600044F4F80180819181C817D90724F4EC0183
:1005700002C0CFEFD0E065E070E080E090E00E9444
:10058000EC0ABE0185E00E94810BBE0187E0DF918D
:10059000CF911F910F910C94810B0F931F93CF93C9
:1005A000DF938C01EB0160E085E00E94D40C60E0F9
:1005B00087E00E94D40CCF3FD10509F044F4F80144
:1005C00080819181C817D90724F4EC0102C0CFEFD4
:1005D000D0E065E070E080E090E00E94EC0ABE01AF
:1005E00084E00E94810BBE0186E0DF91CF911F91D4
:1005F0000F910C94810BEF92FF920F931F93CF9367
:10060000DF937C01EB018A0160E084E00E94D40C5E
:1006100060E086E00E94D40CCF3FD10509F044F49D
:10062000F70180819181C817D90724F4EC0102C039
:10063000CFEFD0E0C017D10734F00233110524F416
:1006400002E310E001C08E0165E070E080E090E020
:100650000E94EC0ABE01601B710B85E00E94810BB9
:10066000BE0187E0DF91CF911F910F91FF90EF9036
:100670000C94810BEF92FF920F931F93CF93DF9314
:100680007C01EB018A0160E084E00E94D40C60E010
:1006900086E00E94D40CCF3FD10509F044F4F70165
:1006A00080819181C817D90724F4EC0102C0CFEFF3
:1006B000D0E0C017D10734F00233110524F402E36F
:1006C00010E001C08E0165E070E080E090E00E94E3
:1006D000EC0ABE01601B710B87E00E94810BBE011A
:1006E00085E0DF91CF911F910F91FF90EF900C94D7
:1006F000810B0F931F93CF93DF938C01EB0160E08D
:1007000085E00E94D40C60E086E00E94D40CCF3FCC
:10071000D10509F044F4F80180819181C817D90707
:1007200024F4EC0102C0CFEFD0E0BE0184E00E94CF
:10073000810BBE0187E0DF91CF911F910F910C9447
:10074000810B0F931F93CF93DF938C01EB0160E03C
:1007500084E00E94D40C60E087E00E94D40CCF3F7C
:10076000D10509F044F4F80180819181C817D907B7
:1007700024F4EC0102C0CFEFD0E0BE0185E00E947E
:10078000810BBE0186E0DF91CF911F910F910C94F8
:10079000810B20917C0330917D0328173907B9F430
:1007A00090913A0380913B03981789F0E0913A03C6
:1007B000F0E0E45CFC4F808120913A0330E02F5F51
:1007C0003F4F2F73332720933A0390E008958FEF24
:1007D0009FEF08951F93CF93DF93DC015C968D917B
:1007E0009C915D97009749F481E090E013969C936B
:1007F0008E93129780E090E03BC05196ED91FC9172
:10080000529750962C915097322F30951FB75E9685
:100810004C915E9741FB772770F941FD6095F89404
:100820004081772311F0422B01C043234083EC0128
:100830002197F1F748E0508160FF02C0522B01C0C0
:1008400053235083EC012197F1F76695415099F7B6
:100850008081772311F0832301C0822B80831FBF07
:100860005C968D919C915D970197F1F781E090E006
:10087000DF91CF911F910895089520917C033091CD
:100880007D032817390781F490913A0380913B0347
:10089000981751F0E0913A03F0E0E45CFC4F80815E
:1008A000992787FD909508958FEF9FEF08952091E8
:1008B0007C0330917D032817390771F480913B0345
:1008C00020913A0390E0805C9F4F821B910960E485
:1008D00070E00E947810089580E090E00895E09123
:1008E0007C03F0917D03E817F90769F4A389B489C3
:1008F0009C918589809589238C9310927D03109219
:100900007C0381E0089580E00895CF93DF93EC01AC
:100910008A8D9B8D892BF1F080917C0390917D03D2
:100920008C179D07B9F0009711F00E946F048E8D0F
:100930008E7F8E8F10923B0310923A03D0937D03EB
:10094000C0937C03EB89FC8980819D89892B8083FE
:1009500081E001C080E0DF91CF9108951F920F9256
:100960000FB60F9211240BB60F922F933F934F9314
:100970005F936F937F938F939F93AF93BF93EF9307
:10098000FF93E0917C03F0917D03309709F451C00F
:10099000868DA685B785958581FF04C08C918923B6
:1009A00029F447C08C91892309F043C0A389B489F5
:1009B0009C918589809589238C9386899789019755
:1009C000F1F7208D318DA685B785758558E040E01B
:1009D000C9010197F1F7842F90E095958795482FED
:1009E0006C91672309F04068515091F7868D81FD25
:1009F000409580913B0390E001968F739927209159
:100A00003A03281749F0A0913B03B0E0A45CBC4F27
:100A10004C9380933B0303C0868D8160868F828DCB
:100A2000938D0197F1F7A389B4898C919589892BCE
:100A30008C93FF91EF91BF91AF919F918F917F9197
:100A40006F915F914F913F912F910F900BBE0F903F
:100A50000FBE0F901F90189526E032E0FC01318305
:100A600020830C946F041F93CF93DF93EC01162F18
:100A70006E8D6695617081E06827812F0E94D40C8D
:100A800061E0812F0E949B0C812F90E0FC01EC57CC
:100A9000FE4FE491E88BFC01E653FE4FE491F0E059
:100AA000EE0FFF1FE65DFD4F859194919A8B898B28
:100AB000DF91CF911F9108951F93CF93DF93EC01A6
:100AC000162F60E0812F0E949B0C8E8D81FD04C04B
:100AD00061E0812F0E94D40C1C87812F90E0FC01E3
:100AE000EC57FE4FE491ED87FC01E653FE4FE49195
:100AF000F0E0EE0FFF1FE05FFD4F859194919F871F
:100B00008E87DF91CF911F910895FF920F931F93CE
:100B1000CF93DF93EC01F62E522F1B821A8208EE40
:100B200013E020E030E00C831D832E833F8386E0BA
:100B300092E0998388831F8A1E8A198E188E1B8ED5
:100B40001A8E1D8E1C8E8E8D8E7F50FB81F98E8F9E
:100B5000642FCE010E9433056F2DCE01DF91CF911E
:100B60001F910F91FF900C945C050F931F93CF93EF
:100B7000DF93EC019A01AB011B8E1A8E198E188E31
:100B80001F8A1E8A60E079E08DE390E00E94AE103B
:100B9000C9012430310520F0B9016350710902C048
:100BA00061E070E07D8F6C8F1C8506EF010F0430D3
:100BB00048F06EEC610F643028F062EC610F683031
:100BC00008F07DC0B901769567956431710518F01C
:100BD0006351710902C061E070E07F8B6E8B0697F4
:100BE00018F0C901059702C081E090E0998F888FC5
:100BF000C901880F991F820F931F96958795969527
:100C000087958D30910510F00C9702C081E090E03F
:100C10009B8F8A8F043060F08EEC810F843040F01F
:100C200082EC810F883008F051C0A8E6B0E050C0D7
:100C3000A8E6B0E0E8E6F0E09081043028F01E532A
:100C4000183010F484E001C081E0892B8C932C854E
:100C500036EF320F343058F08EEC820F843038F09B
:100C600082EC820F883030F48DE690E005C08BE690
:100C700090E002C080E090E09C8B8B8B343010F4CD
:100C800026500BC0223379F0233379F0243379F0E6
:100C900082EC820F883068F4282F81E001C0880F31
:100CA0002A95EAF707C088E005C084E003C082E027
:100CB00001C081E08D8B8C8D9D8D0197F1F7CE0168
:100CC000DF91CF911F910F910C948504A0E0B0E0CB
:100CD000883008F4AFCFE0E0F0E0AECF8BE490E0F6
:100CE000909301028093000268E873E180E090E055
:100CF0000E94EC0A81E090E090937F0380937E0352
:100D000026E040E855E260E070E083E194E00E9474
:100D10001C0E40E855E260E070E08BEE93E00C942E
:100D2000B5050F931F93CF93DF9385EB93E00E945C
:100D3000560270938C0360938B0365E070E080E053
:100D400090E00E94EC0A89ED93E00E9456027093B5
:100D5000900360938F0365E070E080E090E00E9474
:100D6000EC0A87EC93E00E94560270938E03609326
:100D70008D0365E070E080E090E00E94EC0A83EA79
:100D800093E00E94560270938A036093890365E0A2
:100D900070E080E090E00E94EC0A81E993E00E941C
:100DA0005602709388036093870365E070E080E0EB
:100DB00090E00E94EC0AC2E0D0E085EB93E00E9454
:100DC000560200918B0310918C03222717FD20956A
:100DD000322F600F711F821F931F70938C036093DB
:100DE0008B0365E070E080E090E00E94EC0A89ED02
:100DF00093E00E94560200918F03109190032227E6
:100E000017FD2095322F600F711F821F931F709363
:100E1000900360938F0365E070E080E090E00E94B3
:100E2000EC0A87EC93E00E94560200918D0310912A
:100E30008E03222717FD2095322F600F711F821F0E
:100E4000931F70938E0360938D0365E070E080E0E4
:100E500090E00E94EC0A83EA93E00E94560200911F
:100E6000890310918A03222717FD2095322F600FE6
:100E7000711F821F931F70938A036093890365E03B
:100E800070E080E090E00E94EC0A81E993E00E942B
:100E900056020091870310918803222717FD2095A1
:100EA000322F600F711F821F931F20918B0330918F
:100EB0008C0337FF02C02F5F3F4F35952795309346
:100EC0008C0320938B0320918F033091900337FF85
:100ED00002C02F5F3F4F35952795309390032093A5
:100EE0008F0320918D0330918E0337FF02C02F5F57
:100EF0003F4F3595279530938E0320938D03209196
:100F0000890330918A0337FF02C02F5F3F4F359529
:100F1000279530938A03209389039B0177FF02C0B2
:100F20002F5F3F4F35952795309388032093870394
:100F300065E070E080E090E00E94EC0A219709F003
:100F40003CCFDF91CF911F910F9108958091800345
:100F5000992787FD9095A92FB92FFC01F097E930CB
:100F6000F105E8F5EE58FF4F0C94CD1010927F0379
:100F700010927E0380E092E00E948F0262EF72E0A6
:100F800008C068EC70E080E092E00E949F0267EF8A
:100F900072E083E194E00C94840F48EC50E068EC3C
:100FA00070E080E092E00C94FB0268EC70E080E07E
:100FB00092E00C94790348EC50E068EC70E080E03B
:100FC00092E00C943A0368EC70E080E092E00C94BC
:100FD000A10368EC70E080E092E00C94CD020895EB
:100FE0000E94910620918B0330918C0380918F0396
:100FF00090919003203131050CF42AC18031910584
:101000009CF080918D0390918E0340978CF180919C
:10101000890390918A0340975CF1809187039091B6
:10102000880340972CF1EBC18F309105F4F42091A7
:101030008D0330918E03203131050CF468C040914E
:10104000890350918A03403151050CF4B1C040919D
:10105000870350918803403151050CF4A9C06FEF0C
:1010600070E080E092E00C94A1030F9709F4CDC1E9
:1010700080918D0390918E038F309105B4F420916F
:10108000890330918A03203131050CF45EC0209130
:10109000870330918803203131050CF456C06FEF7F
:1010A00070E080E092E00C947903803191050CF4BB
:1010B0004CC02091890330918A032F30310594F47C
:1010C0004091870350918803403151055CF08FE0D7
:1010D00090E0821B930B2FEF289FA001299F500DBA
:1010E000112460C02031310584F1209187033091B3
:1010F00088032F3031054CF58FE090E0821B930B75
:101100002FEF289FA001299F500D112418C02F30C8
:1011100031050CF04DC04091890350918A03403154
:1011200051050CF445C0409187035091880340312C
:101130005105F4F1281739079CF544E650E06FEFAC
:1011400070E080E092E00C94FB02803191050CF499
:1011500041C02091890330918A032F303105D4F5A5
:1011600020918703309188032F3031059CF568EC7E
:1011700070E080E092E00E949F022091890330910C
:101180008A038091870390918803853091050CF044
:101190003CC1253031050CF038C1821793076CF241
:1011A00044E650E06FEF70E080E092E00C943A0388
:1011B000203131050CF14091890350918A034F3061
:1011C0005105D4F440918703509188034F30510565
:1011D0009CF4E6CF0F970CF018C180918903909191
:1011E0008A030F970CF011C18091870390918803B7
:1011F0000F970CF00AC1A1CF05970CF006C125305E
:1012000031050CF002C18091890390918A03059702
:101210000CF0FBC0809187039091880305970CF038
:10122000F4C06FEF70E080E092E00E94CD0264EFC6
:1012300071E080E090E00E94EC0A6FEF70E080E0E7
:1012400092E00E94A1036EEE72E080E090E0BDC0EB
:10125000803191050CF473C020918D0330918E0381
:10126000203131050CF46EC04091890350918A03FE
:10127000403151050CF466C04091870350918803BA
:10128000403151050CF45EC06FEF70E0281739074C
:101290004CF580E092E00E94CD0264EF71E080E0C6
:1012A00090E00E94EC0A6FEF70E080E092E00E9414
:1012B000790364EF71E080E090E00E94EC0A6FEF48
:1012C00070E080E092E00E949F0268EE73E080E0B0
:1012D00090E00E94EC0A6FEF70E080E092E00E94E4
:1012E000A10328C080E092E00E94CD0264EF71E08B
:1012F00080E090E00E94EC0A6FEF70E080E092E006
:101300000E94A10364EF71E080E090E00E94EC0A8B
:101310006FEF70E080E092E00E949F0268EE73E061
:1013200080E090E00E94EC0A6FEF70E080E092E0D5
:101330000E94790364EF71E080E090E05EC08F303E
:101340009105A9F42091890330918A0340918D037E
:1013500050918E0325303105ACF44031510594F0A5
:101360006091870370918803663071055CF06FEFC0
:1013700070E080E092E00E94A10360918F03709181
:10138000900319C04F30510564F04091870350918C
:10139000880345305105DCF40F97C9F0263031053C
:1013A000B4F06FEF70E080E092E00E94790360910A
:1013B0008D0370918E034AE050E083E194E00E9437
:1013C0004B1064E670E080E090E00C94EC0A6FEF64
:1013D00070E080E092E00E94CD0268EC70E080E076
:1013E00090E00E94EC0A6FEF70E080E092E00E94D3
:1013F000A1036EEE72E080E090E00E94EC0A6FEFD5
:1014000070E080E092E00C949F02089520E04BE0B1
:101410006AE08BEE93E00E94850524E130E048E22B
:1014200069E289ED93E00E94630124E130E04CE23F
:101430006DE287EC93E00E94630124E130E04AE230
:101440006BE285EB93E00E94630124E130E04EE221
:101450006FE283EA93E00E94630124E130E040E31D
:1014600061E381E993E00C9463018BEE93E00C94CB
:101470002C058BEE93E00E9457041816190664F4AD
:101480008BEE93E00E94C90380938003682F83E171
:1014900094E00E94960F11C089E38093800389E154
:1014A0009CEF9093860380938503909384038093AD
:1014B0008303909382038093810380917E039091B4
:1014C0007F038130910511F40C94A607892BB1F4A8
:1014D00080918003883381F481E090E090937F03D2
:1014E00080937E0380E092E00E948F026FEF72E0B3
:1014F0008BEE93E00E94840F0C94F00708951F92E6
:101500000F920FB60F9211242F933F938F939F93B7
:10151000AF93BF9380910B0490910C04A0910D04A4
:10152000B0910E0430910A0423E0230F2D3720F4EC
:101530000196A11DB11D05C026E8230F0296A11D2D
:10154000B11D20930A0480930B0490930C04A09384
:101550000D04B0930E0480910F0490911004A0919B
:101560001104B09112040196A11DB11D80930F04C6
:1015700090931004A0931104B0931204BF91AF9103
:101580009F918F913F912F910F900FBE0F901F90C1
:1015900018953FB7F89480910F0490911004A09192
:1015A0001104B091120426B5A89B05C02F3F19F075
:1015B0000196A11DB11D3FBF6627782F892F9A2F55
:1015C000620F711D811D911D42E0660F771F881FFC
:1015D000991F4A95D1F70895CF92DF92EF92FF922B
:1015E000CF93DF936B017C010E94C90AEB01C11408
:1015F000D104E104F10489F00E9463100E94C90A39
:101600006C1B7D0B683E734090F381E0C81AD108D3
:10161000E108F108C851DC4FEACFDF91CF91FF908C
:10162000EF90DF90CF9008958230910538F0880FC9
:10163000991F880F991F05970197F1F708957894DE
:1016400084B5826084BD84B5816084BD85B58260C7
:1016500085BD85B5816085BDEEE6F0E08081816065
:101660008083E1E8F0E01082808182608083808165
:1016700081608083E0E8F0E0808181608083E1EB3D
:10168000F0E0808184608083E0EBF0E08081816025
:101690008083E1E9F0E080818260808380818160E5
:1016A0008083E0E9F0E0808181608083E1EAF0E01E
:1016B000808182608083808181608083E0EAF0E0C5
:1016C000808181608083E1E2F1E0808182608083BB
:1016D000808181608083E0E2F1E0808181608083AD
:1016E000EAE7F0E08081846080838081826080838B
:1016F0008081816080838081806880831092C100B6
:1017000008951F93CF93DF93182FEB0161E00E94A0
:101710009B0C209711F460E004C0CF3FD10539F451
:1017200061E0812FDF91CF911F910C94D40CE12FB8
:10173000F0E0E25CFE4F449150E0FA013197E23173
:10174000F10508F09BC0E558FF4F0C94CD1084B50F
:10175000806884BDC7BD97C084B5806284BDC8BDA4
:1017600092C080918000806880938000D09389002F
:10177000C093880088C08091800080628093800040
:10178000D0938B00C0938A007EC0809180008860D7
:1017900080938000D0938D00C0938C0074C08091A2
:1017A000B00080688093B000C093B3006CC080919B
:1017B000B00080628093B000C093B40064C0809198
:1017C0009000806880939000D0939900C093980017
:1017D0005AC080919000806280939000D0939B00CB
:1017E000C0939A0050C080919000886080939000D0
:1017F000D0939D00C0939C0046C08091A00080685B
:101800008093A0008091A0008F7B8093A000D09354
:10181000A900C093A80037C08091A0008062809387
:10182000A000D093AB00C093AA002DC08091A0006F
:1018300088608093A000D093AD00C093AC0023C01B
:1018400080912001806880932001D0932901C0936A
:10185000280119C080912001806280932001D093DB
:101860002B01C0932A010FC08091200188608093D2
:101870002001D0932D01C0932C0105C0C038D105A3
:101880000CF04ECF48CFDF91CF911F91089590E09B
:10189000FC013197E231F10508F04CC0E357FF4FEE
:1018A0000C94CD10809180008F7703C080918000D0
:1018B0008F7D80938000089580918000877FF9CF8D
:1018C00084B58F7702C084B58F7D84BD08958091E3
:1018D000B0008F7703C08091B0008F7D8093B000FF
:1018E0000895809190008F7707C0809190008F7D40
:1018F00003C080919000877F80939000089580912D
:10190000A0008F7707C08091A0008F7D03C08091D9
:10191000A000877F8093A0000895809120018F7799
:1019200007C0809120018F7D03C080912001877FB7
:10193000809320010895CF93DF9390E0FC01EC5752
:10194000FE4F2491FC01E653FE4F8491882349F118
:1019500090E0880F991FFC01EC5BFD4FA591B491BD
:10196000865D9D4FFC01C591D4919FB7611108C060
:10197000F8948C91209582238C93888182230AC0CD
:10198000623051F4F8948C91322F309583238C93EC
:101990008881822B888304C0F8948C91822B8C934D
:1019A0009FBFDF91CF9108950F931F93CF93DF9344
:1019B0001F92CDB7DEB7282F30E0F901E25CFE4F71
:1019C0008491F901EC57FE4F1491F901E653FE4F53
:1019D00004910023C9F0882321F069830E94470CF9
:1019E0006981E02FF0E0EE0FFF1FE65DFD4FA5914E
:1019F000B4919FB7F8948C91611103C01095812325
:101A000001C0812B8C939FBF0F90DF91CF911F91CD
:101A10000F910895FC01818D228D90E0805C9F4F95
:101A2000821B91098F7399270895FC01918D828DF6
:101A3000981731F0828DE80FF11D858D90E00895A3
:101A40008FEF9FEF0895FC01918D828D981761F0C3
:101A5000828DDF01A80FB11D5D968C91928D9F5FE5
:101A60009F73928F90E008958FEF9FEF08958EED12
:101A70009EE0892B41F080E090E0892B21F00E94CC
:101A8000DE0E811125C080E090E0892B41F080E0DE
:101A900090E0892B21F00E94000081111CC080E0A1
:101AA00090E0892B41F080E090E0892B21F00E94AA
:101AB0000000811113C080E090E0892BA1F080E04C
:101AC00090E0892B81F00E94000081110AC00895E6
:101AD0000E940000D8CF0E940000E1CF0E940000C9
:101AE000EACF0C9400000895FC01848DDF01A80F5B
:101AF000B11DA35ABF4F2C91848D90E001968F7336
:101B00009927848FA689B7892C93A089B1898C9154
:101B100080648C93938D848D981306C00288F3891A
:101B2000E02D80818F7D80830895CF93DF93EC013A
:101B3000888D8823C9F0EA89FB89808185FD05C0ED
:101B4000A889B9898C9186FD0FC00FB607FCF5CF27
:101B5000808185FFF2CFA889B9898C9185FFEDCF6F
:101B6000CE010E94740DE7CFDF91CF910895CF92FF
:101B7000DF92FF920F931F93CF93DF931F92CDB706
:101B8000DEB76C0181E0D60158968C9358975B962E
:101B90009C915B975C968C915C97981307C05096CC
:101BA000ED91FC915197808185FD2EC0F601038D4A
:101BB00010E00F5F1F4F0F731127F02EF601848D79
:101BC000F81211C00FB607FCF9CFD6015096ED916F
:101BD000FC915197808185FFF1CFC60169830E94F6
:101BE000740D6981EBCF838DE80FF11DE35AFF4F30
:101BF0006083D6015B960C935B975296ED91FC91B6
:101C00005397808180620CC0D6015696ED91FC916D
:101C1000579760835096ED91FC9151978081806435
:101C2000808381E090E00F90DF91CF911F910F9121
:101C3000FF90DF90CF900895BF92CF92DF92EF9206
:101C4000FF92CF93DF93EC016A017B01B22EE8890A
:101C5000F98982E08083411581EE5807610571059D
:101C6000A1F060E079E08DE390E0A70196010E9489
:101C70008C102150310941095109569547953795E6
:101C80002795211580E1380798F0E889F9891082B5
:101C900060E874E88EE190E0A70196010E948C1044
:101CA0002150310941095109569547953795279596
:101CB000EC85FD853083EE85FF852083188EEC89C9
:101CC000FD89B082EA89FB89808180618083EA890D
:101CD000FB89808188608083EA89FB8980818068B4
:101CE0008083EA89FB8980818F7D8083DF91CF911A
:101CF000FF90EF90DF90CF90BF9008951F920F92CA
:101D00000FB60F9211240BB60F922F938F939F93C0
:101D1000EF93FF93E0912304F09124048081E091FC
:101D20002904F0912A0482FD12C0908180912C0434
:101D30008F5F8F7320912D04821751F0E0912C0456
:101D4000F0E0ED5EFB4F958F80932C0401C0808105
:101D5000FF91EF919F918F912F910F900BBE0F905C
:101D60000FBE0F901F9018951F920F920FB60F92F3
:101D700011240BB60F922F933F934F935F936F9362
:101D80007F938F939F93AF93BF93EF93FF9383E1E1
:101D900094E00E94740DFF91EF91BF91AF919F91DC
:101DA0008F917F916F915F914F913F912F910F9004
:101DB0000BBE0F900FBE0F901F90189583E194E01B
:101DC0000E940A0D21E0892B09F420E0822F08955A
:101DD000109216041092150488EE93E0A0E0B0E093
:101DE0008093170490931804A0931904B0931A04D5
:101DF0008BE193E0909314048093130485EC90E0BE
:101E00009093200480931F0484EC90E0909322042C
:101E10008093210480EC90E0909324048093230429
:101E200081EC90E0909326048093250482EC90E06E
:101E3000909328048093270486EC90E090932A04E2
:101E40008093290410922C0410922D0410922E04D9
:101E500010922F04089508950E941F0B0E942B0FCB
:101E60000E946E06C7E3DDE00E94390A2097E1F385
:101E70000E94370DF9CFCF92DF92EF92FF920F932E
:101E80001F93CF93DF937C016A01EB0100E010E028
:101E90000C151D0571F06991D701ED91FC91019030
:101EA000F081E02DC7010995892B19F00F5F1F4FB5
:101EB000EFCFC801DF91CF911F910F91FF90EF906D
:101EC000DF90CF9008956115710581F0DB010D90D1
:101ED0000020E9F7AD0141505109461B570BDC01C9
:101EE000ED91FC910280F381E02D099480E090E077
:101EF0000895DC01ED91FC910190F081E02D0994B1
:101F000067E273E00C94630F0F931F93CF93DF93FB
:101F1000EC010E94630F8C01CE010E94800F800FA4
:101F2000911FDF91CF911F910F9108950F931F93F0
:101F3000CF93DF93EC010E94790F8C01CE010E94B8
:101F4000800F800F911FDF91CF911F910F91089506
:101F50008F929F92AF92BF92CF92DF92EF92FF92B9
:101F60000F931F93CF93DF93CDB7DEB7A1970FB633
:101F7000F894DEBF0FBECDBF7C01C42EE52FCB0190
:101F8000D22E19A221E02D1510F02AE0D22E8E01BA
:101F90000F5D1F4F8D2C912CA12CB12C6C2D7E2F01
:101FA000A50194010E948C108C2DD29E80191124C1
:101FB000015011098A3014F4805D01C0895CF80178
:101FC0008083211531054105510521F0C22EE32FF3
:101FD000CA01E4CFB801C7010E94630FA1960FB6F2
:101FE000F894DEBF0FBECDBFDF91CF911F910F914F
:101FF000FF90EF90DF90CF90BF90AF909F908F9029
:102000000895CF92DF92EF92FF920F931F93CF9399
:10201000DF93EC016A017B012115310579F4E88138
:10202000F9810190F081E02D642FDF91CF911F9114
:102030000F91FF90EF90DF90CF9009942A303105F7
:10204000E9F477FF1AC06DE20E94790F8C014427F2
:102050005527BA014C195D096E097F092AE0CE01A6
:102060000E94A80F800F911FDF91CF911F910F91B8
:10207000FF90EF90DF90CF9008952AE0B701A6017E
:10208000CE01DF91CF911F910F91FF90EF90DF90E4
:10209000CF900C94A80F0F931F93CF93DF93EC0175
:1020A0009A01AB01662757FD6095762F0E940110BB
:1020B0008C01CE010E94800F800F911FDF91CF9184
:1020C0001F910F9108950895AA1BBB1B51E107C0F2
:1020D000AA1FBB1FA617B70710F0A61BB70B881FB8
:1020E000991F5A95A9F780959095BC01CD01089547
:1020F00097FB072E16F4009407D077FD09D00E94B5
:10210000641007FC05D03EF4909581959F4F08958B
:10211000709561957F4F0895A1E21A2EAA1BBB1BF3
:10212000FD010DC0AA1FBB1FEE1FFF1FA217B307A3
:10213000E407F50720F0A21BB30BE40BF50B661FB9
:10214000771F881F991F1A9469F76095709580957D
:1021500090959B01AC01BD01CF010895052E97FB21
:102160001EF400940E94C51057FD07D00E948C10E9
:1021700007FC03D04EF40C94C51050954095309553
:1021800021953F4F4F4F5F4F0895909580957095E3
:1021900061957F4F8F4F9F4F0895EE0FFF1F059062
:1021A000F491E02D09940790F691E02D099412E046
:1021B000C2E6D2E000E006C022970109FE010BBF93
:1021C0000E94D310C436D10780E00807A9F7F8941D
:0221D000FFCF3F
:1021D2004B0000000000EA033B0F5704C9033D0413
:1021E2003C044E657720436F6D6D616E64205265CD
:1021F2006365697665643A00537769746368696EEA
:102202006720746F2041694D6F646500466F727775
:1022120061726473207769746820737065656420E5
:10222200004261636B77617264732077697468201E
:10223200737065656420004C656674207769746804
:102242002073706565642000616E6420736861723A
:10225200706E6573732000526967687420776974C1
:102262006820737065656420004C65667420726F27
:102272007461746520776974682073706565642081
:1022820000526967687420726F746174652077699F
:1022920074682073706565642000556E6B6E6F778D
:1022A2006E202D2D3E2053746F70006F626A65633D
:1022B2007420696E20776179202D2D3E2053544F72
:1022C200500073746F7000566F6F727569740053AB
:1022D2007769746368696E6720746F204D616E75EB
:1022E200616C4D6F64650000000000B70D3B0F0A82
:1022F2000D230D150D950D0D0A006E616E00696EB0
:0823020066006F7666002E00F4
:00000001FF
